:020000040800F2
:10000000C006002029020008D1120008C912000809
:10001000CD1200082D040008F512000800000000B1
:10002000000000000000000000000000D9120008DD
:100030003104000800000000D5120008DD1200089D
:10004000430200084302000843020008430200087C
:10005000430200084302000843020008430200086C
:10006000430200084302000843020008430200085C
:10007000430200084302000843020008430200084C
:10008000430200084302000821040008430200085C
:10009000430200084302000843020008430200082C
:1000A000430200084302000843020008430200081C
:1000B000430200084302000843020008430200080C
:1000C00043020008430200084302000843020008FC
:1000D00043020008430200084302000843020008EC
:1000E00043020008430200084302000843020008DC
:1000F00043020008430200084302000843020008CC
:1001000043020008430200084302000843020008BB
:1001100043020008430200084302000843020008AB
:10012000430200084302000843020008430200089B
:10013000430200084302000843020008430200088B
:10014000430200084302000843020008430200087B
:10015000430200084302000843020008430200086B
:10016000430200084302000843020008430200085B
:100170004302000843020008430200080000000098
:10018000430200084302000800F002F800F03CF8C7
:100190000AA090E8000C82448344AAF10107DA45E2
:1001A00001D100F031F8AFF2090EBAE80F0013F0F8
:1001B000010F18BFFB1A43F001031847BC120000DF
:1001C000DC120000103A24BF78C878C1FAD8520770
:1001D00024BF30C830C144BF04680C6070470000C1
:1001E0000023002400250026103A28BF78C1FBD840
:1001F000520728BF30C148BF0B6070471FB501F0E0
:1002000025F91FBD10B510BD00F0D0F81146FFF75D
:10021000F5FF01F071F800F0EEF803B4FFF7F2FF1C
:1002200003BC00F0F5F80000094880470948004782
:10023000FEE7FEE7FEE7FEE7FEE7FEE7FEE7FEE796
:10024000FEE7FEE704480549054A064B70470000F3
:10025000E112000889010008C0000020C00600204B
:10026000C0020020C002002053EA020C00F06980A6
:100270002DE9F04B4FF00006002B1FBFB3FA83F5BA
:1002800003FA05F424FA05F65E4012BF1643B2FAEB
:1002900082F502FA05F4C5F120051EBF22FA05FC1D
:1002A00044EA0C04203556EA044C4FEA144418BFC3
:1002B000641C4FF000084FF00009904271EB030CF2
:1002C00039D3002919BFB1FA81F701FA07F6B0FA5C
:1002D00080F700FA07F6C7F120071EBF20FA07FCD7
:1002E00046EA0C062037B6FBF4FCA7EB0507103FE7
:1002F00007F01F0BCBF120062CFA06F60CFA0BFBCD
:1003000044BFB3460026202FA4BF5E464FF0000B2B
:100310005BEA060C08BF4FF0010B19EB0B0948EB29
:100320000608ABFB027C06FB02CC0BFB03CCC01B1C
:1003300071EB0C01C1E70B46024641464846BDE859
:10034000F08B13B5084318BF4FF0FF300146AFF3F1
:100350000080BDE81C4070474FF0000200B5134616
:1003600094469646203922BFA0E80C50A0E80C50D5
:10037000B1F12001BFF4F7AF090728BFA0E80C5086
:1003800048BF0CC05DF804EB890028BF40F8042B7F
:1003900008BF704748BF20F8022B11F0804F18BFEC
:1003A00000F8012B7047704770477047754600F0A2
:1003B0002BF8AE4605006946534620F007008546F7
:1003C00018B020B5FFF73EFFBDE820404FF0000613
:1003D0004FF000074FF000084FF0000BAC46ACE8C0
:1003E000C009ACE8C009ACE8C009ACE8C00921F01C
:1003F00007018D46704710B50446AFF300802046D4
:10040000BDE81040FFF709BF00487047100000200A
:1004100001491820ABBEFEE726000200704700002D
:1004200040F27400C2F2000000F0C2B8FEE7000023
:10043000704700007047000070B581B00022009244
:1004400090F83C20012A03D10221084601B070BD7A
:100450000E6801220A2E80F83C2009D3B2B2520065
:10046000D0F800E012FA86F21E3A0EF10C0305E015
:10047000D0F800E006EB46020EF110034FF0070C37
:100480001D680CFA02F4A5431D608D681C6805FA0E
:1004900002F222431A60496806290FD801EB810154
:1004A0004A1F71461F2351F8345F934025EA030326
:1004B0000B60B3B203FA02F214E000BF01EB810358
:1004C0000C29B2B204D8714651F8304F233B03E0F7
:1004D000714651F82C4F413B1F259D4024EA0505EC
:1004E0009A400D600B6842F2043CC4F2010C1A43BE
:1004F000ACF541739E450A603BD1122E06D1DCF863
:10050000001041F48001CCF8001032E026F0010127
:1005100010292ED1DCF80010102E41F40001CCF887
:10052000001026D140F20801C2F2000109684DF620
:100530008362C4F21B32A1FB0212910C01EB810118
:10054000490000910099A1B10099013900910099E9
:1005500079B1009901390091009951B1009901399F
:100560000091009929B10099013900910099002961
:10057000EAD1002180F83C10084601B070BD0000AF
:1005800010B5006842F20001C4F20101884218BFB0
:1005900010BD40F27004C2F20004201D00F004F807
:1005A000208010BD704700000068C06C70470000DC
:1005B00070B50446006806684568B10717D515F0A0
:1005C000200114D0216CC90603D4216C41F40071C0
:1005D0002164816811F0405F02D1217E002969D039
:1005E0002046FFF7CDFF20686FF012010160710710
:1005F00014D515F0800111D0216CC90603D4216CEB
:1006000041F400512164816811F4401F22D020463A
:10061000FFF710FF20686FF00C010160F10706D0B2
:1006200015F040011CBF01685FEAC17134D1B10609
:100630000FD515F0806108BF70BD616C6FF02005AB
:1006400041F00201616405602046FFF7ABFF2068BE
:10065000056070BD816B11F4401F02D081684905AF
:10066000D5D441684905D2D4816811F0405FCED11C
:10067000217E0029CBD1416821F080014160206CAE
:1006800020F480502064206CC005C0D4206C40F061
:1006900001002064BBE700BF206C40F48030206480
:1006A000204600F0D1F820686FF001010160B1062A
:1006B000BFD4CEE7C16A11F4700F03D08168490539
:1006C0003FF58EAF416821F020014160206C20F49D
:1006D00080702064206CC0043FF582AF206C40F035
:1006E000010020647CE70000002804BF012070475F
:1006F00010B50446006C00283ED0206CC00645D4DE
:10070000206C41F202118843023042F2043120642D
:10071000C4F20101086820F4403008600A6894E8D7
:1007200009101A43D4F810E00A604168012321F44B
:10073000807141604168C0F6007341EA0E2141605A
:10074000416821F040714160416841EA0C0141601B
:10075000816821F400618160E168826811438160F1
:10076000A16A8268994222F070628260826813D125
:1007700022F0405119E000BF204600F067F8002049
:10078000606484F83C00206CC006B9D501200021CB
:1007900084F83C1010BD00BF11438160816821F0D6
:1007A00040518160E16A826811438160816821F073
:1007B000020181608168227E94F8203041EA420182
:1007C0008160416883B141F40061416041684EF24B
:1007D000000221F460414160616ACFF6FF72436814
:1007E00002EB4131194301E021F400614160C16A2B
:1007F00040F2000C21F47001C162E2696169CFF638
:10080000F07CC36A0CEB02521A43C262826822F483
:100810000072826094F83020836843EA422282604A
:10082000826822F480628260826842EA812181606B
:1008300000206064216C012262F301012164002127
:1008400084F83C1010BD00007047000080B586B0F1
:1008500042F200010068C4F20101002288420592C0
:10086000049201D006B080BD43F630000092C4F27D
:100870000200436943F480734361436903F4807366
:100880000093009B0092036843F00103036000683B
:1008900000F0010000900098022001900320CDE9B3
:1008A000020201F5604001A900F0BEF8122000210B
:1008B000002200F017FA122000F000FA06B080BD06
:1008C00080B581B00021009190F83C10012903D13E
:1008D000022001B080BD00BFD0F800E0012180F807
:1008E0003C10714651F8083FDB072AD10B684DF6E2
:1008F000836243F001030B6040F20803C2F200037D
:100900001B68C4F21B32A3FB02239A0C02EB4202C7
:100910000092009AAAB100BF009A013A0092009A90
:100920007AB1009A013A0092009A52B1009A013AC3
:100930000092009A2AB1009A013A0092009A002A85
:10094000EAD10A68036CD2070AD143F010010164AE
:1009500000F1440101200A68104308605CE000BF18
:1009600040F2017223EA020202F580720264DEF8AC
:100970000420520504D5026C012363F30D32026496
:10098000026C4FF0000C0023D20444BF426C22F0F2
:100990000603436480F83CC06FF02200CEF80000EC
:1009A000DEF8042042F2043042F0806242F020027D
:1009B000C4F20100CEF804200268D2060CD0A0F5E3
:1009C0004172964528D14FF60452CFF6FF728058F7
:1009D00010F0405F20D123E042F20002C4F2010295
:1009E000964515D042F20022C4F2010296450CD081
:1009F00042F20012C4F2010296450DD10268D206FD
:100A000006D0A0F58272964506D10068C00603D4D0
:100A1000086810F0405F03D0002001B080BD00BF27
:100A20004FF0804097E700002DE9F04F82B000F1D1
:100A30003E4241F6004502F1FF77C4F2020508226A
:100A400043F6004E4FEAB726A84208BF0722C4F279
:100A5000010E072E38BF4FEAB722012500260027D6
:100A60004FF00008009208E008F101080437B8F1DF
:100A7000100F06F1020600F0A7800C6805FA08F9CD
:100A800014EA090FF0D0D1F804B003220BF0030CE4
:100A9000ACF10104B240012C6FEA020A10D882685E
:100AA000CC6802EA0A02B440224382604268CBF377
:100AB000001422EA090204FA08F42243426005E025
:100AC000BCF1030F02D14FF0030C20E0C2688C6828
:100AD00002EA0A02B4402243BCF1020FC26016D1FE
:100AE0006FF0030202EA58020244D2F820C007F075
:100AF0001C050F230C69AB402CEA030304FA05F52F
:100B00002B431362D1F804B001250BF0030C0268EB
:100B10000CFA06F302EA0A021A431BF4403F026091
:100B2000A2D0002243F644030192C4F202031A68E1
:100B30004FF6084C42F480421A601A68CFF6FF7CE8
:100B400002F480420192019A28F00302724452F8A2
:100B50000C3007F00C050F24AC40A343009C04FAB2
:100B600005F52B4342F80C30DEF808204B6842EACA
:100B7000090543F60C4CDC0258BF22EA0905CEF801
:100B80000850C4F2010CDCF800209C0242EA09057E
:100B900058BF22EA0905CCF80050DEF804209C0377
:100BA00042EA090558BF22EA0905CEF80450DEF8EA
:100BB0000020DB0342EA090558BF22EA0905CEF806
:100BC0000050012550E700BF02B0BDE8F08F0000E3
:100BD000002A08BF090481617047000040F2BC0090
:100BE000C2F200000068704740F2000040F2BC0111
:100BF000C2F20000C2F2000100780A6810440860E6
:100C00007047000080B543F60040C4F2020001685E
:100C100041F400710160016841F480610160016884
:100C200041F480710160032000F088F80F2000F08B
:100C300005F800F027F8002080BD000070B540F2F4
:100C40000006C2F2000640F208013278C2F200014A
:100C50004FF47A730968B3FBF2F20446B1FBF2F188
:100C6000084600F01BFB0F2C4FF0010508D838B9DF
:100C70004FF0FF3021460022002500F033F8746069
:100C8000284670BD82B0002043F640010190C4F2B6
:100C900002014A6842F480424A604A6802F4804293
:100CA0000192019A0090086840F08050086008683E
:100CB00000F080500090009802B07047002848BFB4
:100CC0007047C1B200F01F00012202FA00F04EF29C
:100CD0000012CEF2000242EAD10121F003010860C5
:100CE0007047000010B54EF60C5CCEF2000CDCF83C
:100CF0000030C3F3022E8EF00704042C28BF042416
:100D0000BEF103034FF0FF3E0EFA04F438BF002398
:100D1000A14399400EFA03F39A43114300F00F02E6
:100D200000F160430901043A03F56443624400287A
:100D300048BF02F10C03197010BD00004EF60C51B3
:100D4000CEF200010A684FF6FF031A4060F30A2250
:100D500042F0806040F0FD70086070472DE9F0417E
:100D6000002800F08B8043F60808C4F2020804460D
:100D7000D8F8F8030D4600F00700884207D288F83B
:100D8000F853D8F8F80300F00700A84276D120689D
:100D9000810717D5410705D5D8F8001041F4E05177
:100DA000C8F80010010705D5D8F8001041F46041DB
:100DB000C8F80010D8F80010A26821F0F001114323
:100DC000C8F80010C0073FD1D8F8F80300F00700BA
:100DD000A84207D988F8F853D8F8F80300F00700BC
:100DE000A8424BD12068410707D5D8F80010E26827
:100DF00021F4E0511143C8F80010000708D5D8F8D5
:100E00000000216920F4604040EAC100C8F80000F9
:100E100000F054F8D8F8001041F26642C1F3031113
:100E2000C0F60002515C40F2080220FA01F140F2E3
:100E30000400C2F200000068C2F200021160FFF775
:100E4000FDFE0020BDE8F0816068811E022907D206
:100E500058F8081C89015CBF0120BDE8F08111E051
:100E6000012807D158F8081C89035CBF0120BDE8A0
:100E7000F08107E058F8081C890703D40120BDE879
:100E8000F08100BFD8F8001021F003010843C8F832
:100E90000000FFF7A3FE064641F28837D8F80000AD
:100EA000616800F00C00B0EB810F8DD0FFF796FE6B
:100EB000801BB842F2D90320BDE8F08110B543F69B
:100EC0000404C4F20204606800F00C0008280BD08F
:100ED000042819BF42F20040C0F2F40047F6400077
:100EE000C0F27D1010BD00BF206821682368490250
:100EF00047F64001C0F27D1100F03F02C3F38810B5
:100F00005CBF42F20041C0F2F401A1FB00010023EA
:100F1000FFF7AAF921680222C1F3014102EB410166
:100F2000B0FBF1F010BD00002DE9F04182B00028C7
:100F300068D00446007843F60006C007C4F20206F3
:100F40000BD0B06800F00C00042840F09F8030689F
:100F5000800302D56068002854D0207880071AD515
:100F6000B06810F00C0F09D0B06800F00C00082831
:100F700040F0A6807068400200F1A28030688007CF
:100F800002D5E06801283DD13068216920F0F800E1
:100F900040EAC10030602078000737D4207840074D
:100FA0004CD4A56955B3B06800F00C00082840F097
:100FB000BB80012D26D07068E16900F480028A426E
:100FC00020D1216A00F03F028A421BD147F6C0714E
:100FD000626A0140B1EB821F14D1A16A4FF6FF7320
:100FE000C903994300F44032A1F580318A4209D106
:100FF000E16A00F07060B0EB016F03D1002002B035
:10100000BDE8F081012002B0BDE8F08160690028F0
:1010100040F20000C4F2472076D00121C0F8801EC3
:10102000FFF7DCFD054600BF706F8007B6D4FFF701
:10103000D5FD401B0228F7D9DDE000BF306C10F071
:1010400080580AD100200190306C40F0805030640C
:10105000306C00F080500190019847F20007C4F214
:1010600000073868C00541D4386840F480703860A3
:10107000FFF7B4FD054600BF3868C00536D4FFF75A
:10108000ADFD401B0228F7D9B5E000BFB06800F005
:101090000C00082803D1706840023FF558AF606823
:1010A000B0F5803F07D0B0F5A02F40F08D803068BC
:1010B00040F480203060306840F4803030608DE053
:1010C000E068002852D00020C4F2472001210160CE
:1010D000FFF784FD054600BF306880073FF554AF39
:1010E000FFF77CFD401B0228F6D984E0A0680128A8
:1010F00005D005284ED1306F40F004003067306FC6
:1011000040F0010030674FE00021C0F8801EFFF77B
:1011100065FD0546706F80077FF540AFFFF75EFD08
:10112000401B0228F6D966E00027C4F247270020BA
:101130003866FFF753FD022D05460BD1306880015C
:101140005ED5FFF74BFD401B02284FF00300F5D999
:1011500055E700BF306880017FF550AFFFF73EFDD7
:10116000401B02284FF00300F4D948E70020C4F2E6
:10117000472000210160FFF731FD054630688007F8
:101180007FF509AFFFF72AFD401B02284FF003004F
:10119000F4D934E7316F002821F001013167316F54
:1011A00021F0040131674DD0FFF718FD054641F2EB
:1011B000883700BF306F800756D4FFF70FFD401B04
:1011C000B842F7D917E000BF3168002821F4803118
:1011D0003160316821F4802131604FD0FFF7FEFC8F
:1011E000054600BF306880033FF5B7AEFFF7F6FC59
:1011F000401B6428F6D9032002B0BDE8F08100BF8F
:1012000004F11C052FCD084340EA8210D9034FF6A4
:10121000FF729143A1F5803140EA05600843706098
:1012200001203866FFF7DAFC044600BF3068800111
:101230003FF5E4AEFFF7D2FC001B02284FF003009D
:10124000F4D9DCE6FFF7CAFC054641F2883700BF57
:10125000306F800708D5FFF7C1FC401BB8424FF044
:101260000300F5D9CBE600BFB8F1000F7FF499AECB
:10127000306C20F08050306493E600BFFFF7AEFC86
:10128000054600BF306880037FF567AEFFF7A6FC18
:10129000401B64284FF00300F4D9B0E6411E002043
:1012A000B0EB116F1CBF012070474EF21002CEF25E
:1012B000000251604EF62351CEF20001F0230B7074
:1012C0000721906011607047FEE70000FEE7000014
:1012D000FEE700007047000070470000FFF784BC85
:1012E0004EF68850CEF20000016841F470010160B2
:1012F00070470000FEE7000092B043F6300647F268
:101300000005C4F20206C4F20005FFF77BFC06AC40
:10131000201D2C21FFF720F800270597CDE9037742
:10132000CDE901770097306940F080503061306935
:1013300000F08050009000980097286840F48040AA
:101340002860286800F480400090009802200690F1
:101350000120099010200A9020460C97FFF7E4FD29
:1013600020B1EFF3108072B6FEE700BF0F20CDE989
:10137000010701A80021CDE903770597FFF7EEFCEF
:1013800020B1EFF3108072B6FEE700BF00270A9786
:101390000197306805F5CE3440F0010030603068C8
:1013A0004FF4704100F001000190019801973068FE
:1013B000002240F00800306030684FF4704600F0C2
:1013C0000800019001982046FFF702FC06960126CE
:1013D00006A92046CDE907670997FFF725FB40F2EC
:1013E0007004C2F2000405F530412046012240F8A5
:1013F000041F4FF44031C0F600720997077680F859
:101400002060C0E90962C762C66180F83070C0E937
:101410000117C0E903764661FFF766F920B1EFF3E3
:10142000108072B6FEE700BF043406A92046CDE95D
:1014300006660897FFF700F820B1EFF3108072B648
:10144000FEE700BF2046FFF73BFAFBE7F1EE100A8C
:101450004FF6FF71C0F2C03120EA010040F0407049
:10146000E1EE100A704700000000000000000102D9
:101470000304060708090000981400080000002073
:1014800010000000C4010008A8140008100000208B
:10149000B0060000E001000801000000100000009C
:0814A0000024F400000000002C
:040000050800018965
:00000001FF
